{
  "_format": "hh-sol-artifact-1",
  "contractName": "pongData",
  "sourceName": "contracts/pong_party.sol",
  "abi": [
    {
      "inputs": [],
      "stateMutability": "nonpayable",
      "type": "constructor"
    },
    {
      "inputs": [
        {
          "internalType": "address",
          "name": "owner",
          "type": "address"
        }
      ],
      "name": "OwnableInvalidOwner",
      "type": "error"
    },
    {
      "inputs": [
        {
          "internalType": "address",
          "name": "account",
          "type": "address"
        }
      ],
      "name": "OwnableUnauthorizedAccount",
      "type": "error"
    },
    {
      "anonymous": false,
      "inputs": [
        {
          "indexed": true,
          "internalType": "address",
          "name": "previousOwner",
          "type": "address"
        },
        {
          "indexed": true,
          "internalType": "address",
          "name": "newOwner",
          "type": "address"
        }
      ],
      "name": "OwnershipTransferred",
      "type": "event"
    },
    {
      "inputs": [],
      "name": "getPongGames",
      "outputs": [
        {
          "components": [
            {
              "internalType": "uint256",
              "name": "semifinal1_start_time",
              "type": "uint256"
            },
            {
              "internalType": "uint256",
              "name": "semifinal2_start_time",
              "type": "uint256"
            },
            {
              "internalType": "uint256",
              "name": "final_start_time",
              "type": "uint256"
            },
            {
              "internalType": "string",
              "name": "semifinal1_player1",
              "type": "string"
            },
            {
              "internalType": "string",
              "name": "semifinal1_player2",
              "type": "string"
            },
            {
              "internalType": "string",
              "name": "semifinal2_player1",
              "type": "string"
            },
            {
              "internalType": "string",
              "name": "semifinal2_player2",
              "type": "string"
            },
            {
              "internalType": "string",
              "name": "final_player1",
              "type": "string"
            },
            {
              "internalType": "string",
              "name": "final_player2",
              "type": "string"
            },
            {
              "internalType": "uint8",
              "name": "semifinal1_score1",
              "type": "uint8"
            },
            {
              "internalType": "uint8",
              "name": "semifinal1_score2",
              "type": "uint8"
            },
            {
              "internalType": "uint8",
              "name": "semifinal2_score1",
              "type": "uint8"
            },
            {
              "internalType": "uint8",
              "name": "semifinal2_score2",
              "type": "uint8"
            },
            {
              "internalType": "uint8",
              "name": "final_score1",
              "type": "uint8"
            },
            {
              "internalType": "uint8",
              "name": "final_score2",
              "type": "uint8"
            }
          ],
          "internalType": "struct pongData.pongGame[]",
          "name": "",
          "type": "tuple[]"
        }
      ],
      "stateMutability": "view",
      "type": "function"
    },
    {
      "inputs": [],
      "name": "owner",
      "outputs": [
        {
          "internalType": "address",
          "name": "",
          "type": "address"
        }
      ],
      "stateMutability": "view",
      "type": "function"
    },
    {
      "inputs": [
        {
          "internalType": "uint256",
          "name": "",
          "type": "uint256"
        }
      ],
      "name": "pongGames",
      "outputs": [
        {
          "internalType": "uint256",
          "name": "semifinal1_start_time",
          "type": "uint256"
        },
        {
          "internalType": "uint256",
          "name": "semifinal2_start_time",
          "type": "uint256"
        },
        {
          "internalType": "uint256",
          "name": "final_start_time",
          "type": "uint256"
        },
        {
          "internalType": "string",
          "name": "semifinal1_player1",
          "type": "string"
        },
        {
          "internalType": "string",
          "name": "semifinal1_player2",
          "type": "string"
        },
        {
          "internalType": "string",
          "name": "semifinal2_player1",
          "type": "string"
        },
        {
          "internalType": "string",
          "name": "semifinal2_player2",
          "type": "string"
        },
        {
          "internalType": "string",
          "name": "final_player1",
          "type": "string"
        },
        {
          "internalType": "string",
          "name": "final_player2",
          "type": "string"
        },
        {
          "internalType": "uint8",
          "name": "semifinal1_score1",
          "type": "uint8"
        },
        {
          "internalType": "uint8",
          "name": "semifinal1_score2",
          "type": "uint8"
        },
        {
          "internalType": "uint8",
          "name": "semifinal2_score1",
          "type": "uint8"
        },
        {
          "internalType": "uint8",
          "name": "semifinal2_score2",
          "type": "uint8"
        },
        {
          "internalType": "uint8",
          "name": "final_score1",
          "type": "uint8"
        },
        {
          "internalType": "uint8",
          "name": "final_score2",
          "type": "uint8"
        }
      ],
      "stateMutability": "view",
      "type": "function"
    },
    {
      "inputs": [],
      "name": "renounceOwnership",
      "outputs": [],
      "stateMutability": "nonpayable",
      "type": "function"
    },
    {
      "inputs": [
        {
          "internalType": "uint256",
          "name": "_semifinal1_start_time",
          "type": "uint256"
        },
        {
          "internalType": "string",
          "name": "_semifinal1_player1",
          "type": "string"
        },
        {
          "internalType": "string",
          "name": "_semifinal1_player2",
          "type": "string"
        },
        {
          "internalType": "uint8",
          "name": "_semifinal1_score1",
          "type": "uint8"
        },
        {
          "internalType": "uint8",
          "name": "_semifinal1_score2",
          "type": "uint8"
        },
        {
          "internalType": "uint256",
          "name": "_semifinal2_start_time",
          "type": "uint256"
        },
        {
          "internalType": "string",
          "name": "_semifinal2_player1",
          "type": "string"
        },
        {
          "internalType": "string",
          "name": "_semifinal2_player2",
          "type": "string"
        },
        {
          "internalType": "uint8",
          "name": "_semifinal2_score1",
          "type": "uint8"
        },
        {
          "internalType": "uint8",
          "name": "_semifinal2_score2",
          "type": "uint8"
        },
        {
          "internalType": "uint256",
          "name": "_final_start_time",
          "type": "uint256"
        },
        {
          "internalType": "string",
          "name": "_final_player1",
          "type": "string"
        },
        {
          "internalType": "string",
          "name": "_final_player2",
          "type": "string"
        },
        {
          "internalType": "uint8",
          "name": "_final_score1",
          "type": "uint8"
        },
        {
          "internalType": "uint8",
          "name": "_final_score2",
          "type": "uint8"
        }
      ],
      "name": "storeGame",
      "outputs": [],
      "stateMutability": "nonpayable",
      "type": "function"
    },
    {
      "inputs": [
        {
          "internalType": "address",
          "name": "newOwner",
          "type": "address"
        }
      ],
      "name": "transferOwnership",
      "outputs": [],
      "stateMutability": "nonpayable",
      "type": "function"
    }
  ],
  "bytecode": "0x6080806040523461007a5733156100645760008054336001600160a01b03198216811783556040519290916001600160a01b0316907f8be0079c531659141344cd1fd0a4f28419497f9722a3daafe3b4186f6b6457e09080a36110df90816100808239f35b631e4fbdf760e01b815260006004820152602490fd5b600080fdfe6080604052600436101561001257600080fd5b60003560e01c8063715018a614610e3d5780637facee6f14610ced57806387fb00af146103be5780638da5cb5b14610395578063c523e5ce146100eb5763f2fde38b1461005e57600080fd5b346100e65760203660031901126100e6576004356001600160a01b03818116918290036100e65761008d61107d565b81156100cd576000548260018060a01b0319821617600055167f8be0079c531659141344cd1fd0a4f28419497f9722a3daafe3b4186f6b6457e0600080a3005b604051631e4fbdf760e01b815260006004820152602490fd5b600080fd5b346100e65760003660031901126100e657600180546001600160401b03811161037f57602060059060405192610126828260051b0185610f21565b8084526001600090815282812083860194855b8484106102905750505050506040519384938285019083865251809152604085019260408260051b87010194936000905b8382106101775787870388f35b918496819592949698508190603f198b820301855289519061022d6102196102076101f46101e16101ce6101e088518852898901518a8901526040890151604089015260609080828b0151928a0152880190610fe7565b6080808901519088830390890152610fe7565b60a0808801519087830390880152610fe7565b60c0808701519086830390870152610fe7565b60e085015184820360e0860152610fe7565b610100808501519084830390850152610fe7565b91610120808201519060ff809216908401526101408181840151169084015261016081818401511690840152610180818184015116908401526101a0818184015116908401526101c080920151169101529801920192018796959391949261016a565b97600a86829899979a6040516102a581610f05565b865481528487015483820152600287015460408201526102c760038801610f42565b60608201526102d860048801610f42565b60808201526102e8868801610f42565b60a08201526102f960068801610f42565b60c082015261030a60078801610f42565b60e0820152600861031c818901610f42565b6101008301526009880154809160ff9283918282166101208701521c16610140840152818160101c16610160840152818160181c166101808401528181861c166101a084015260281c166101c08201528152019301930192919794969597610139565b634e487b7160e01b600052604160045260246000fd5b346100e65760003660031901126100e6576000546040516001600160a01b039091168152602090f35b346100e6576101e03660031901126100e6576024356001600160401b0381116100e6576103ef903690600401611027565b6044356001600160401b0381116100e65761040e903690600401611027565b60643560ff811681036100e65760843560ff811681036100e65760c4356001600160401b0381116100e657610447903690600401611027565b9060e4356001600160401b0381116100e657610467903690600401611027565b92610104359260ff841684036100e657610124359460ff861686036100e657610164356001600160401b0381116100e6576104a6903690600401611027565b90610184356001600160401b0381116100e6576104c7903690600401611027565b926101a4359860ff8a168a036100e65760ff6101c435166101c435036100e6576104ef61107d565b6040519a6104fc8c610f05565b6004358c5260a43560208d01526101443560408d015260608c015260808b015260a08a015260c089015260e088015261010087015260ff1661012086015260ff1661014085015260ff1661016084015260ff1661018083015260ff166101a08201526101c43560ff166101c0820152600154600160401b81101561037f5780600161058a9201600155610e96565b919091610cd75780518255602081015160018301556040810151600283015560608101519182516001600160401b03811161037f576105cc6003830154610ecb565b601f8111610c90575b506020601f8211600114610c225781929394600092610c17575b50508160011b916000199060031b1c19161760038201555b60808201519182516001600160401b03811161037f5761062a6004840154610ecb565b601f8111610bd0575b506020601f8211600114610b625781929394600092610b57575b50508160011b916000199060031b1c19161760048301555b60a08101519182516001600160401b03811161037f576106886005830154610ecb565b601f8111610b10575b506020601f8211600114610aa25781929394600092610a97575b50508160011b916000199060031b1c19161760058201555b60c08201519182516001600160401b03811161037f576106e66006840154610ecb565b601f8111610a50575b506020601f82116001146109e257819293946000926109d7575b50508160011b916000199060031b1c19161760068301555b60e08101519182516001600160401b03811161037f576107446007830154610ecb565b601f8111610990575b506020601f82116001146109225781929394600092610917575b50508160011b916000199060031b1c19161760078201555b6101008201518051906001600160401b03821161037f576107a36008840154610ecb565b601f81116108d0575b50602090601f831160011461085f57600993929160009183610854575b50508160011b916000199060031b1c19161760088201555b019060ff610120820151169082549161ff0061014083015160081b1662ff000061016084015160101b169063ff00000061018085015160181b169265ff00000000006101c064ff000000006101a088015160201b1696015160281b169565ffffffffffff19161717171717179055600080f35b0151905085806107c9565b90601f198316916008850160005260206000209260005b8181106108b8575091600193918560099796941061089f575b505050811b0160088201556107e1565b015160001960f88460031b161c1916905585808061088f565b92936020600181928786015181550195019301610876565b600884016000526020600020601f840160051c810160208510610910575b601f830160051c820181106109045750506107ac565b600081556001016108ee565b50806108ee565b015190508480610767565b6007830160005260206000209060005b601f19841681106109785750600193949583601f1981161061095f575b505050811b01600782015561077f565b015160001960f88460031b161c1916905584808061094f565b9091602060018192858a015181550193019101610932565b600783016000526020600020601f830160051c8101602084106109d0575b601f830160051c820181106109c457505061074d565b600081556001016109ae565b50806109ae565b015190508480610709565b6006840160005260206000209060005b601f1984168110610a385750600193949583601f19811610610a1f575b505050811b016006830155610721565b015160001960f88460031b161c19169055848080610a0f565b9091602060018192858a0151815501930191016109f2565b600684016000526020600020601f830160051c810160208410610a90575b601f830160051c82018110610a845750506106ef565b60008155600101610a6e565b5080610a6e565b0151905084806106ab565b6005830160005260206000209060005b601f1984168110610af85750600193949583601f19811610610adf575b505050811b0160058201556106c3565b015160001960f88460031b161c19169055848080610acf565b9091602060018192858a015181550193019101610ab2565b600583016000526020600020601f830160051c810160208410610b50575b601f830160051c82018110610b44575050610691565b60008155600101610b2e565b5080610b2e565b01519050848061064d565b6004840160005260206000209060005b601f1984168110610bb85750600193949583601f19811610610b9f575b505050811b016004830155610665565b015160001960f88460031b161c19169055848080610b8f565b9091602060018192858a015181550193019101610b72565b600484016000526020600020601f830160051c810160208410610c10575b601f830160051c82018110610c04575050610633565b60008155600101610bee565b5080610bee565b0151905084806105ef565b6003830160005260206000209060005b601f1984168110610c785750600193949583601f19811610610c5f575b505050811b016003820155610607565b015160001960f88460031b161c19169055848080610c4f565b9091602060018192858a015181550193019101610c32565b600383016000526020600020601f830160051c810160208410610cd0575b601f830160051c82018110610cc45750506105d5565b60008155600101610cae565b5080610cae565b634e487b7160e01b600052600060045260246000fd5b346100e65760203660031901126100e6576004356001548110156100e657610d1490610e96565b50805460018201546002830154929091610d3060038301610f42565b91610d3d60048201610f42565b610d4960058301610f42565b610d5560068401610f42565b90610d6260078501610f42565b92610d6f60088601610f42565b94600901549660ff966040519a8b9a6101e0928c5260208c015260408b01528060608b01528901610d9f91610fe7565b88810360808a0152610db091610fe7565b87810360a0890152610dc191610fe7565b86810360c0880152610dd291610fe7565b85810360e0870152610de391610fe7565b848103610100860152610df591610fe7565b91818116610120850152818160081c16610140850152818160101c16610160850152818160181c16610180850152818160201c166101a085015260281c166101c08301520390f35b346100e65760003660031901126100e657610e5661107d565b600080546001600160a01b0319811682556001600160a01b03167f8be0079c531659141344cd1fd0a4f28419497f9722a3daafe3b4186f6b6457e08280a3005b600154811015610eb5576001600052600a602060002091020190600090565b634e487b7160e01b600052603260045260246000fd5b90600182811c92168015610efb575b6020831014610ee557565b634e487b7160e01b600052602260045260246000fd5b91607f1691610eda565b6101e081019081106001600160401b0382111761037f57604052565b90601f801991011681019081106001600160401b0382111761037f57604052565b90604051918260008254610f5581610ecb565b90818452602094600191600181169081600014610fc55750600114610f86575b505050610f8492500383610f21565b565b600090815285812095935091905b818310610fad575050610f849350820101388080610f75565b85548884018501529485019487945091830191610f94565b92505050610f8494925060ff191682840152151560051b820101388080610f75565b919082519283825260005b848110611013575050826000602080949584010152601f8019910116010190565b602081830181015184830182015201610ff2565b81601f820112156100e6578035906001600160401b03821161037f576040519261105b601f8401601f191660200185610f21565b828452602083830101116100e657816000926020809301838601378301015290565b6000546001600160a01b0316330361109157565b60405163118cdaa760e01b8152336004820152602490fdfea2646970667358221220ac8479eae781f19865d2cf98832e7e921fb097171e671ec3600fac2069bd3a0964736f6c63430008180033",
  "linkReferences": {},
  "deployedLinkReferences": {}
}