{
  "_format": "hh-sol-artifact-1",
  "contractName": "pongData",
  "sourceName": "contracts/pong_party.sol",
  "abi": [
    {
      "inputs": [],
      "stateMutability": "nonpayable",
      "type": "constructor"
    },
    {
      "inputs": [
        {
          "internalType": "address",
          "name": "owner",
          "type": "address"
        }
      ],
      "name": "OwnableInvalidOwner",
      "type": "error"
    },
    {
      "inputs": [
        {
          "internalType": "address",
          "name": "account",
          "type": "address"
        }
      ],
      "name": "OwnableUnauthorizedAccount",
      "type": "error"
    },
    {
      "anonymous": false,
      "inputs": [
        {
          "indexed": true,
          "internalType": "address",
          "name": "previousOwner",
          "type": "address"
        },
        {
          "indexed": true,
          "internalType": "address",
          "name": "newOwner",
          "type": "address"
        }
      ],
      "name": "OwnershipTransferred",
      "type": "event"
    },
    {
      "inputs": [],
      "name": "getPongGames",
      "outputs": [
        {
          "components": [
            {
              "internalType": "uint256",
              "name": "semifinal1_start_time",
              "type": "uint256"
            },
            {
              "internalType": "uint256",
              "name": "semifinal2_start_time",
              "type": "uint256"
            },
            {
              "internalType": "uint256",
              "name": "final_start_time",
              "type": "uint256"
            },
            {
              "internalType": "uint256",
              "name": "semifinal1_player1_id",
              "type": "uint256"
            },
            {
              "internalType": "uint256",
              "name": "semifinal1_player2_id",
              "type": "uint256"
            },
            {
              "internalType": "uint256",
              "name": "semifinal2_player1_id",
              "type": "uint256"
            },
            {
              "internalType": "uint256",
              "name": "semifinal2_player2_id",
              "type": "uint256"
            },
            {
              "internalType": "string",
              "name": "semifinal1_player1",
              "type": "string"
            },
            {
              "internalType": "string",
              "name": "semifinal1_player2",
              "type": "string"
            },
            {
              "internalType": "string",
              "name": "semifinal2_player1",
              "type": "string"
            },
            {
              "internalType": "string",
              "name": "semifinal2_player2",
              "type": "string"
            },
            {
              "internalType": "string",
              "name": "final_player1",
              "type": "string"
            },
            {
              "internalType": "string",
              "name": "final_player2",
              "type": "string"
            },
            {
              "internalType": "uint8",
              "name": "semifinal1_score1",
              "type": "uint8"
            },
            {
              "internalType": "uint8",
              "name": "semifinal1_score2",
              "type": "uint8"
            },
            {
              "internalType": "uint8",
              "name": "semifinal2_score1",
              "type": "uint8"
            },
            {
              "internalType": "uint8",
              "name": "semifinal2_score2",
              "type": "uint8"
            },
            {
              "internalType": "uint8",
              "name": "final_score1",
              "type": "uint8"
            },
            {
              "internalType": "uint8",
              "name": "final_score2",
              "type": "uint8"
            }
          ],
          "internalType": "struct pongData.pongGame[]",
          "name": "",
          "type": "tuple[]"
        }
      ],
      "stateMutability": "view",
      "type": "function"
    },
    {
      "inputs": [],
      "name": "owner",
      "outputs": [
        {
          "internalType": "address",
          "name": "",
          "type": "address"
        }
      ],
      "stateMutability": "view",
      "type": "function"
    },
    {
      "inputs": [
        {
          "internalType": "uint256",
          "name": "",
          "type": "uint256"
        }
      ],
      "name": "pongGames",
      "outputs": [
        {
          "internalType": "uint256",
          "name": "semifinal1_start_time",
          "type": "uint256"
        },
        {
          "internalType": "uint256",
          "name": "semifinal2_start_time",
          "type": "uint256"
        },
        {
          "internalType": "uint256",
          "name": "final_start_time",
          "type": "uint256"
        },
        {
          "internalType": "uint256",
          "name": "semifinal1_player1_id",
          "type": "uint256"
        },
        {
          "internalType": "uint256",
          "name": "semifinal1_player2_id",
          "type": "uint256"
        },
        {
          "internalType": "uint256",
          "name": "semifinal2_player1_id",
          "type": "uint256"
        },
        {
          "internalType": "uint256",
          "name": "semifinal2_player2_id",
          "type": "uint256"
        },
        {
          "internalType": "string",
          "name": "semifinal1_player1",
          "type": "string"
        },
        {
          "internalType": "string",
          "name": "semifinal1_player2",
          "type": "string"
        },
        {
          "internalType": "string",
          "name": "semifinal2_player1",
          "type": "string"
        },
        {
          "internalType": "string",
          "name": "semifinal2_player2",
          "type": "string"
        },
        {
          "internalType": "string",
          "name": "final_player1",
          "type": "string"
        },
        {
          "internalType": "string",
          "name": "final_player2",
          "type": "string"
        },
        {
          "internalType": "uint8",
          "name": "semifinal1_score1",
          "type": "uint8"
        },
        {
          "internalType": "uint8",
          "name": "semifinal1_score2",
          "type": "uint8"
        },
        {
          "internalType": "uint8",
          "name": "semifinal2_score1",
          "type": "uint8"
        },
        {
          "internalType": "uint8",
          "name": "semifinal2_score2",
          "type": "uint8"
        },
        {
          "internalType": "uint8",
          "name": "final_score1",
          "type": "uint8"
        },
        {
          "internalType": "uint8",
          "name": "final_score2",
          "type": "uint8"
        }
      ],
      "stateMutability": "view",
      "type": "function"
    },
    {
      "inputs": [],
      "name": "renounceOwnership",
      "outputs": [],
      "stateMutability": "nonpayable",
      "type": "function"
    },
    {
      "inputs": [
        {
          "internalType": "uint256",
          "name": "_semifinal1_start_time",
          "type": "uint256"
        },
        {
          "internalType": "string",
          "name": "_semifinal1_player1",
          "type": "string"
        },
        {
          "internalType": "uint256",
          "name": "_semifinal1_player1_id",
          "type": "uint256"
        },
        {
          "internalType": "string",
          "name": "_semifinal1_player2",
          "type": "string"
        },
        {
          "internalType": "uint256",
          "name": "_semifinal1_player2_id",
          "type": "uint256"
        },
        {
          "internalType": "uint8",
          "name": "_semifinal1_score1",
          "type": "uint8"
        },
        {
          "internalType": "uint8",
          "name": "_semifinal1_score2",
          "type": "uint8"
        },
        {
          "internalType": "uint256",
          "name": "_semifinal2_start_time",
          "type": "uint256"
        },
        {
          "internalType": "string",
          "name": "_semifinal2_player1",
          "type": "string"
        },
        {
          "internalType": "uint256",
          "name": "_semifinal2_player1_id",
          "type": "uint256"
        },
        {
          "internalType": "string",
          "name": "_semifinal2_player2",
          "type": "string"
        },
        {
          "internalType": "uint256",
          "name": "_semifinal2_player2_id",
          "type": "uint256"
        },
        {
          "internalType": "uint8",
          "name": "_semifinal2_score1",
          "type": "uint8"
        },
        {
          "internalType": "uint8",
          "name": "_semifinal2_score2",
          "type": "uint8"
        },
        {
          "internalType": "uint256",
          "name": "_final_start_time",
          "type": "uint256"
        },
        {
          "internalType": "string",
          "name": "_final_player1",
          "type": "string"
        },
        {
          "internalType": "string",
          "name": "_final_player2",
          "type": "string"
        },
        {
          "internalType": "uint8",
          "name": "_final_score1",
          "type": "uint8"
        },
        {
          "internalType": "uint8",
          "name": "_final_score2",
          "type": "uint8"
        }
      ],
      "name": "storeGame",
      "outputs": [],
      "stateMutability": "nonpayable",
      "type": "function"
    },
    {
      "inputs": [
        {
          "internalType": "address",
          "name": "newOwner",
          "type": "address"
        }
      ],
      "name": "transferOwnership",
      "outputs": [],
      "stateMutability": "nonpayable",
      "type": "function"
    }
  ],
  "bytecode": "0x6080806040523461007a5733156100645760008054336001600160a01b03198216811783556040519290916001600160a01b0316907f8be0079c531659141344cd1fd0a4f28419497f9722a3daafe3b4186f6b6457e09080a36111c190816100808239f35b631e4fbdf760e01b815260006004820152602490fd5b600080fdfe6080604052600436101561001257600080fd5b60003560e01c8063715018a614610f1f5780637facee6f14610d9a5780638da5cb5b14610d71578063a3782ca9146103ee578063c523e5ce146100eb5763f2fde38b1461005e57600080fd5b346100e65760203660031901126100e6576004356001600160a01b03818116918290036100e65761008d61115f565b81156100cd576000548260018060a01b0319821617600055167f8be0079c531659141344cd1fd0a4f28419497f9722a3daafe3b4186f6b6457e0600080a3005b604051631e4fbdf760e01b815260006004820152602490fd5b600080fd5b346100e65760003660031901126100e657600180546001600160401b0381116103d857602060059060405192610126828260051b0185611003565b8084526001600090815282812083860194855b8484106102bd5750505050506040519384938285019083865251809152604085019260408260051b87010194936000905b8382106101775787870388f35b918496819592949698508190603f198b820301855289519061025a61024661023261021e61020a6101f661026088518852898901518a890152604089015160408901526060808a0151908901526080808a01519089015260a0808a01519089015260c0808a01519089015260e0890151908060e08a01528801906110c9565b6101008089015190888303908901526110c9565b6101208088015190878303908801526110c9565b6101408087015190868303908701526110c9565b6101608086015190858303908601526110c9565b6101808085015190848303908501526110c9565b916101a0808201519060ff809216908401526101c0818184015116908401526101e081818401511690840152610200818184015116908401526102208181840151169084015261024080920151169101529801920192018796959391949261016a565b97600e86829899979a6040516102d281610fe7565b8654815284870154838201526002870154604082015260038701546060820152600487015460808201528587015460a0820152600687015460c082015261031b60078801611024565b60e0820152600861032d818901611024565b61010083015261033f60098901611024565b610120830152610351600a8901611024565b610140830152610363600b8901611024565b610160830152610375600c8901611024565b610180830152600d880154809160ff9283918282166101a08701521c166101c0840152818160101c166101e0840152818160181c166102008401528181861c1661022084015260281c166102408201528152019301930192919794969597610139565b634e487b7160e01b600052604160045260246000fd5b346100e6576102603660031901126100e6576024356001600160401b0381116100e65761041f903690600401611109565b6064356001600160401b0381116100e65761043e903690600401611109565b60a43560ff811681036100e65760c43560ff811681036100e657610104356001600160401b0381116100e657610478903690600401611109565b90610144356001600160401b0381116100e657610499903690600401611109565b92610184359260ff841684036100e6576101a4359460ff861686036100e6576101e4356001600160401b0381116100e6576104d8903690600401611109565b90610204356001600160401b0381116100e6576104f9903690600401611109565b92610224359860ff8a168a036100e65760ff610244351661024435036100e65761052161115f565b6040519a61052e8c610fe7565b6004358c5260e43560208d01526101c43560408d015260443560608d015260843560808d01526101243560a08d01526101643560c08d015260e08c01526101008b01526101208a015261014089015261016088015261018087015260ff166101a086015260ff166101c085015260ff166101e084015260ff1661020083015260ff166102208201526102443560ff16610240820152600154600160401b8110156103d8578060016105e29201600155610f78565b919091610d5b57805182556020810151600183015560408101516002830155606081015160038301556080810151600483015560a0810151600583015560c0810151600683015560e08101519182516001600160401b0381116103d85761064c6007830154610fad565b601f8111610d14575b506020601f8211600114610ca65781929394600092610c9b575b50508160011b916000199060031b1c19161760078201555b6101008201519182516001600160401b0381116103d8576106ab6008840154610fad565b601f8111610c54575b506020601f8211600114610be65781929394600092610bdb575b50508160011b916000199060031b1c19161760088301555b6101208101519182516001600160401b0381116103d85761070a6009830154610fad565b601f8111610b94575b506020601f8211600114610b265781929394600092610b1b575b50508160011b916000199060031b1c19161760098201555b6101408201519182516001600160401b0381116103d857610769600a840154610fad565b601f8111610ad4575b506020601f8211600114610a665781929394600092610a5b575b50508160011b916000199060031b1c191617600a8301555b6101608101519182516001600160401b0381116103d8576107c8600b830154610fad565b601f8111610a14575b506020601f82116001146109a6578192939460009261099b575b50508160011b916000199060031b1c191617600b8201555b6101808201518051906001600160401b0382116103d857610827600c840154610fad565b601f8111610954575b50602090601f83116001146108e357600d939291600091836108d8575b50508160011b916000199060031b1c191617600c8201555b019060ff6101a0820151169082549161ff006101c083015160081b1662ff00006101e084015160101b169063ff00000061020085015160181b169265ff000000000061024064ff0000000061022088015160201b1696015160281b169565ffffffffffff19161717171717179055600080f35b01519050858061084d565b90601f19831691600c850160005260206000209260005b81811061093c5750916001939185600d97969410610923575b505050811b01600c820155610865565b015160001960f88460031b161c19169055858080610913565b929360206001819287860151815501950193016108fa565b600c84016000526020600020601f840160051c810160208510610994575b601f830160051c82018110610988575050610830565b60008155600101610972565b5080610972565b0151905084806107eb565b600b830160005260206000209060005b601f19841681106109fc5750600193949583601f198116106109e3575b505050811b01600b820155610803565b015160001960f88460031b161c191690558480806109d3565b9091602060018192858a0151815501930191016109b6565b600b83016000526020600020601f830160051c810160208410610a54575b601f830160051c82018110610a485750506107d1565b60008155600101610a32565b5080610a32565b01519050848061078c565b600a840160005260206000209060005b601f1984168110610abc5750600193949583601f19811610610aa3575b505050811b01600a8301556107a4565b015160001960f88460031b161c19169055848080610a93565b9091602060018192858a015181550193019101610a76565b600a84016000526020600020601f830160051c810160208410610b14575b601f830160051c82018110610b08575050610772565b60008155600101610af2565b5080610af2565b01519050848061072d565b6009830160005260206000209060005b601f1984168110610b7c5750600193949583601f19811610610b63575b505050811b016009820155610745565b015160001960f88460031b161c19169055848080610b53565b9091602060018192858a015181550193019101610b36565b600983016000526020600020601f830160051c810160208410610bd4575b601f830160051c82018110610bc8575050610713565b60008155600101610bb2565b5080610bb2565b0151905084806106ce565b6008840160005260206000209060005b601f1984168110610c3c5750600193949583601f19811610610c23575b505050811b0160088301556106e6565b015160001960f88460031b161c19169055848080610c13565b9091602060018192858a015181550193019101610bf6565b600884016000526020600020601f830160051c810160208410610c94575b601f830160051c82018110610c885750506106b4565b60008155600101610c72565b5080610c72565b01519050848061066f565b6007830160005260206000209060005b601f1984168110610cfc5750600193949583601f19811610610ce3575b505050811b016007820155610687565b015160001960f88460031b161c19169055848080610cd3565b9091602060018192858a015181550193019101610cb6565b600783016000526020600020601f830160051c810160208410610d54575b601f830160051c82018110610d48575050610655565b60008155600101610d32565b5080610d32565b634e487b7160e01b600052600060045260246000fd5b346100e65760003660031901126100e6576000546040516001600160a01b039091168152602090f35b346100e65760203660031901126100e6576004356001548110156100e657610dc190610f78565b50805460018201549060028301549260038101549160048201549060058301549060068401549060078501610df590611024565b610e0160088701611024565b91610e0e60098801611024565b93610e1b600a8901611024565b95610e28600b8a01611024565b97610e35600c8b01611024565b99600d01549a6040519d8e809e61026097825260208201526040015260608d015260808c015260a08b015260c08a01528060e08a01528801610e76916110c9565b878103610100890152610e88916110c9565b868103610120880152610e9a916110c9565b858103610140870152610eac916110c9565b848103610160860152610ebe916110c9565b838103610180850152610ed0916110c9565b9060ff81166101a08401528060081c60ff166101c08401528060101c60ff166101e08401528060181c60ff166102008401528060201c60ff1661022084015260281c60ff166102408301520390f35b346100e65760003660031901126100e657610f3861115f565b600080546001600160a01b0319811682556001600160a01b03167f8be0079c531659141344cd1fd0a4f28419497f9722a3daafe3b4186f6b6457e08280a3005b600154811015610f97576001600052600e602060002091020190600090565b634e487b7160e01b600052603260045260246000fd5b90600182811c92168015610fdd575b6020831014610fc757565b634e487b7160e01b600052602260045260246000fd5b91607f1691610fbc565b61026081019081106001600160401b038211176103d857604052565b90601f801991011681019081106001600160401b038211176103d857604052565b9060405191826000825461103781610fad565b908184526020946001916001811690816000146110a75750600114611068575b50505061106692500383611003565b565b600090815285812095935091905b81831061108f5750506110669350820101388080611057565b85548884018501529485019487945091830191611076565b9250505061106694925060ff191682840152151560051b820101388080611057565b919082519283825260005b8481106110f5575050826000602080949584010152601f8019910116010190565b6020818301810151848301820152016110d4565b81601f820112156100e6578035906001600160401b0382116103d8576040519261113d601f8401601f191660200185611003565b828452602083830101116100e657816000926020809301838601378301015290565b6000546001600160a01b0316330361117357565b60405163118cdaa760e01b8152336004820152602490fdfea2646970667358221220170bbabb303c434c1c6b7d461e55e73a1e022236e5ae349f6df1fae299a56fd764736f6c63430008180033",
  "linkReferences": {},
  "deployedLinkReferences": {}
}